:10000000803141288031FF3F2E000C1C0A280C1043
:10001000902009002E008C1E09008C12F60A03198C
:10002000F70A2000FB309D001E309C0092207508CE
:100030000339F500F51C1F28751C3128392875185F
:100040002928710894212000971517109600F50AA9
:100050000900720894212000171497109600F50AE1
:100060000900730894212000971417119600F50ACF
:100070000900740894212000171597119600F50ABD
:1000800009003E00B8013E00C3013E00CE01200041
:10009000960191019701E0309200980120000F3005
:1000A00093003E000F30CF0031000230930020005B
:1000B0009E01200040309F0020008B012E00960101
:1000C000961616148C123D000D30900020009030D2
:1000D0009E000030F1000030F2000030F3000030EC
:1000E000F400F501F801F901F601F701FA01FE014A
:1000F000FD012E008C0120000B178B177E2876083F
:100100008039F800790603198828F81F88288A2082
:100110007808F900F10A243071060319F10108008A
:10012000F20A08007A18CE280430FB003E000F3097
:10013000CF0020000F3093000E080F39F0007B082D
:10014000FF3E0B00A628A828AA28AC280130AD281D
:100150000330AD280730AD280F307006F00070086E
:100160000319B728700370050319C728BE2820009B
:1001700093363E00CF36FB0B9E2808000E30F10070
:100180001B30F2001B30F3002430F4000800200084
:100190000E080F39FC00FD017A14080020000E083B
:1001A0000F390F3AF0007E0807390B00DC28E528EC
:1001B000FB2806291429212970080319E328FD01C9
:1001C0000130FE0008007A10080070080319F728B3
:1001D000FD0A03307D02031D0800FE1FF3280530D1
:1001E000FE00FD0139290230FE00FD01080000304B
:1001F000FE00FD010800700803190229FD0A031919
:1002000034290800FD010430FE0008007008031DB9
:100210001229FD0A03307D02031D08000030FE0094
:10022000FD010800FD0108007008031D1D29FD0ADD
:1002300081307D0203192F290800FD018130FE0065
:1002400008007008031D2D29FD0A03307D02031DDF
:1002500008000030FE00FD010800FD0108003C21FF
:100260000030FE00FD0108004A210330FE00FD01C0
:1002700008004321FD010800512170210D30F300D9
:100280001330F4000800512170211C30F3001330AA
:10029000F4000800512170210C30F3000A30F40002
:1002A00008007B08FF3E0B005829612968296D2949
:1002B000FC1D0A347C1D0934FC1C08347C1C0734EA
:1002C00000347C1D0634FC1C05347C1C04340034D2
:1002D000FC1C03347C1C023400347C1C01340034CC
:1002E000F0000A30700203197A292430F1007008F6
:1002F000F20008000130F1000030F2000800200098
:100300000E080F39F000003070180130F100003095
:10031000F0180130F200003070190130F3000030A5
:10032000F0190130F40008000B003F3406345B3450
:100330004F3466346D347D3407347F346F34773412
:100340007C3439345E34793471343D347634063457
:100350001E3475343834373457343F34733467348B
:1003600071346D3478343E343E346B3476346E34CC
:100370005B3400340800FF3FFF3FFF3FFF3FFF3F7C
:020000040001F9
:0A000E00ECDFFFF7BFFFFEEFFFFF7E
:00000001FF
