:10000000803141288031FF3F2E000C1C0A280C1043
:10001000902009002E008C1E09008C12F60A03198C
:10002000F70A2000FB309D001E309C0092207508CE
:100030000339F500F51C1F28751C3128392875185F
:10004000292871088D212000971517109600F50AB0
:10005000090072088D212000171497109600F50AE8
:10006000090073088D212000971417119600F50AD6
:10007000090074088D212000171597119600F50AC4
:1000800009003E00B8013E00C3013E00CE01200041
:10009000960191019701E0309200980120000F3005
:1000A00093003E000F30CF0031000230930020005B
:1000B0009E01200040309F0020008B012E00960101
:1000C000961616148C123D000D30900020009030D2
:1000D0009E000030F1000030F2000030F3000030EC
:1000E000F400F501F801F901F601F701FA01FE014A
:1000F000FD012E008C0120000B178B177E2876083F
:100100008039F800790603198828F81F88288A2082
:100110007808F900F10A243071060319F10108008A
:10012000F20A08007A18C7280430FB003E000F309E
:10013000CF0020000F3093000E080F39F0007B082D
:10014000FF3E0B000134033407340F347006F00017
:1001500070080319B028700370050319C028B72868
:10016000200093363E00CF36FB0B9E2808000E3051
:10017000F1001B30F2001B30F3002430F4000800C3
:1001800020000E080F39FC00FD017A140800200041
:100190000E080F390F3AF0007E0807390B00D528FA
:1001A000DE28F428FF280D291A2970080319DC28F5
:1001B000FD010130FE0008007A10080070080319E4
:1001C000F028FD0A03307D02031D0800FE1FEC2805
:1001D0000530FE00FD0132290230FE00FD0108005D
:1001E0000030FE00FD01080070080319FB28FD0A1D
:1001F00003192D290800FD010430FE0008007008D5
:10020000031D0B29FD0A03307D02031D0800003089
:10021000FE00FD010800FD0108007008031D1629FD
:10022000FD0A81307D02031928290800FD01813073
:10023000FE0008007008031D2629FD0A03307D0218
:10024000031D08000030FE00FD010800FD0108004C
:1002500035210030FE00FD01080043210330FE007F
:10026000FD0108003C21FD0108004A2169210D30F3
:10027000F3001330F40008004A2169211C30F30018
:100280001330F40008004A2169210C30F3000A30D1
:10029000F40008007B08FF3E0B0051295A29612910
:1002A0006629FC1D0A347C1D0934FC1C08347C1CA6
:1002B000073400347C1D0634FC1C05347C1C0434DB
:1002C0000034FC1C03347C1C023400347C1C0134DC
:1002D0000034F0000A307002031973292430F10051
:1002E0007008F20008000130F1000030F200080050
:1002F00020000E080F39F000003070180130F100B6
:100300000030F0180130F200003070190130F300B5
:100310000030F0190130F40008000B003F340634BF
:100320005B344F3466346D347D3407347F346F343E
:1003300077347C3439345E34793471343D347634F6
:1003400006341E3475343834373457343F347334FC
:10035000673471346D3478343E343E346B347634E3
:100360006E345B3400340800FF3FFF3FFF3FFF3F28
:020000040001F9
:0A000E00ECDFFFF7BFFFFEEFFFFF7E
:00000001FF
