:10000000803141288031FF3F2E000C1C0A280C1043
:100010008F2009002E008C1E09008C12F60A03198D
:10002000F70A2000FB309D001E309C0091207508CF
:100030000339F500F51C1F28751C3128392875185F
:10004000292871089E212000971517109600F50A9F
:10005000090072089E212000171497109600F50AD7
:10006000090073089E212000971417119600F50AC5
:10007000090074089E212000171597119600F50AB3
:1000800009003E00B8013E00C3013E00CE01200041
:10009000960191019701E0309200980120000F3005
:1000A00093003E000F30CF0031000230930020005B
:1000B0009E01200040309F0020008B012E00960101
:1000C000961616148C123D000D30900020009030D2
:1000D0009E000030F1000030F2000030F3000030EC
:1000E000F400F501F801F901F601F701FD01FC0149
:1000F0002E008C0120000B178B177D287608803985
:10010000F800790603198728F81F872889207808BE
:10011000F900F10A243071060319F1010800F20A0E
:1001200008007D0803199528D4280430FA003E0001
:100130000F30CF0020000F3093000E080F39F00071
:100140007A08FF3E0B00A728A928AB28AD2801306C
:10015000AE280330AE280730AE280F307006F0000E
:1001600070080319B828700370050319CC28C32838
:10017000200093363E00CF36FA0BBF28080020003F
:100180000E080F399F280E30F1001B30F2001B3093
:10019000F3002430F400080020000E080F39FB00A3
:1001A000FC010130FD00080020000E080F39F000AE
:1001B0005421F800700878057802F0007D080739AE
:1001C0000B00E728E828FE28092917292429080018
:1001D00070080319FA28FC0A03307C02031D08008A
:1001E000FD1FF6280530FD00FC013C290230FD0012
:1001F000FC0108000030FD00FC0108007008031934
:100200000529FC0A031937290800FC010430FD0008
:1002100008007008031D1529FC0A03307C02031D29
:1002200008000030FD00FC010800FC010800700817
:10023000031D2029FC0A81307C02031932290800A1
:10024000FC018130FD0008007008031D3029FC0A04
:1002500003307C02031D08000030FD00FC01080093
:10026000FC0108003F210030FD00FC0108004D2189
:100270000330FD00FC0108004621FC0108005B2161
:100280007A210D30F3001330F40008005B217A214D
:100290001C30F3001330F40008005B217A210C308D
:1002A000F3000A30F40008007A08FF3E0B00013426
:1002B000033407340F347A08FF3E0B007729722984
:1002C0006B296229FB1D0A347B1D0934FB1C083491
:1002D0007B1C073400347B1D0634FB1C05347B1C5F
:1002E00004340034FB1C03347B1C023400347B1CBC
:1002F00001340034F0000A307002031984292430DC
:10030000F1007008F20008000130F1000030F20046
:10031000080020000E080F39F0000030701801307E
:10032000F1000030F0180130F20000307019013097
:10033000F3000030F0190130F40008000B003F34E6
:1003400006345B344F3466346D347D3407347F3487
:100350006F3477347C3439345E34793471343D34DD
:10036000763406341E3475343834373457343F34D9
:100370007334673471346D3478343E343E346B34C6
:1003800076346E345B3400340800FF3FFF3FFF3F9C
:020000040001F9
:0A000E00ECDFFFF7BFFFFEEFFFFF7E
:00000001FF
